:04000000FDEF0AF016
:1000080000C01EF001C01DF002C01CF003C01BF0B0
:1000180004C01AF005C019F008C018F009C017F09C
:100028000AC016F00BC015F0E1CF27F0E2CF28F098
:10003800E9CF25F0EACF26F0F3CF23F0F4CF24F070
:10004800F5CF22F0F8CF1FF0F7CF20F0F6CF21F050
:10005800D2EC09F022C0F5FF1FC0F8FF20C0F7FF5F
:1000680021C0F6FF23C0F3FF24C0F4FF1EC000F038
:100078001DC001F01CC002F01BC003F01AC004F040
:1000880019C005F018C008F017C009F016C00AF02A
:1000980015C00BF025C0E9FF26C0EAFF27C0E1FF25
:0600A80028C0E2FF110078
:1000AE001E0E716E100E496E040E4A6E49C0E1FFAF
:1000BE004AC0E2FFE69E49C0E1FF4AC0E2FFE69C6D
:1000CE00040E4924E16E000E4A20E26EE68C180EF4
:1000DE002D6E040E2E6E2DC0E1FF2EC0E2FFE69EA9
:1000EE002DC0E1FF2EC0E2FFE69C040E2D24E16E32
:1000FE00000E2E20E26EE68C020E4924E16E000EFA
:10010E004A20E26E30C0E6FF31C0E6FF010E492400
:10011E00E16E000E4A20E26E400EE66E49C0E9FF27
:10012E004AC0EAFFEECF00F049C0E1FF4AC0E2FF4D
:10013E00400E0014E66E49C0E9FF4AC0EAFFEECF5A
:10014E0000F049C0E1FF4AC0E2FF880E0010E66EE3
:10015E0049C032F04AC033F0040E4918006E00C098
:04016E0049F0120042
:100172000B6A0A6A096A00500402F4CF09F0F3CF4D
:1001820008F001500502F4CF0BF0F3CF0AF0005053
:100192000502F3500926F4500A22E86A0B220150A4
:1001A2000402F3500926F4500A22E86A0B2208C01E
:1001B20000F009C001F00AC002F00BC003F0120007
:1001C2000401286B296B42D03C8E28812F50010AF2
:1001D200D8B4288350D03C8E4ED03C8E24BF16D04B
:1001E20024C403F00F0E031603C000F0000E016ECC
:1001F200003600900136470E0024E96E000E012001
:10020200EA6EEECF04F0EECF05F015D024C403F071
:100212000F0E031603C000F0000E016E00360090B0
:1002220001362B0E0024E96E000E0120EA6EEECF9D
:1002320004F0EECF05F004C0E9FF05C0EAFFEECFFF
:1002420001F001A402D0010E286F15D020C401F0E4
:100252001F0E01160150000AB7E020C401F01F0E64
:1002620001160150010AB7E020C401F01F0E011669
:100272000150020AB2E03CAE07D0280E396E040EDD
:0A0282003A6E3C80020E3D6E120041
:10028C0004012251010A0FE120C401F01F0E0116D6
:10029C000150000A08E13C8E2151030A03E1010ED2
:1002AC002F6E01D02F6A2251000AD8A48BD020C403
:1002BC0001F01F0E01160150020AD8A483D024C4E9
:1002CC0001F00F0E01160150000AD8B47BD03C8E01
:1002DC0024BF16D024C403F00F0E031603C000F085
:1002EC00000E016E003600900136470E0024E96EB8
:1002FC00000E0120EA6EEECF04F0EECF05F015D023
:10030C0024C403F00F0E031603C000F0000E016EA0
:10031C000036009001362B0E0024E96E000E0120F1
:10032C00EA6EEECF04F0EECF05F02151030A07E19F
:10033C0004C0E1FF05C0E2FF840EE66E43D024C486
:10034C0000F00F0E0016700E026E0F0E036E0050B2
:10035C000226D8B0032A02C0E9FF03C0EAFFFE0E52
:10036C00EE14006EEECF01F0FF0E011602C0E1FF9D
:10037C0003C0E2FF00C0E6FF01C0E6FF24AF11D0CE
:10038C0004C0E1FF05C0E2FFE66A040E0418006E2B
:10039C0000C004F004C0E1FF05C0E2FF400EE66EB1
:1003AC0011D004C0E1FF05C0E2FF880EE66E040E1A
:1003BC000418006E00C004F004C0E1FF05C0E2FFA9
:0603CC00C80EE66E1200EF
:1003D2003C8E716A376A22C434F03450000A03E159
:0E03E200100E356E03D0200E356E60DE120058
:1003F00004012051800AD8A471D0C00E3C6E64D094
:10040000060E006E180E016E000E026E00C039F06E
:1004100001C03AF002C03BF0120E3D6E000E3E6E7F
:100420005DD0030E006E000E016E22C404F0000EBB
:10043000056E9FDE440E0024E96E000E0120EA6E78
:10044000EECF39F0EECF3AF0EECF3BF0020E39248A
:10045000F66E000E3A20F76E000E3B20F86E090093
:10046000F5CF00F00900F5CF01F000C03DF001C06C
:100470003EF034D02251365C23E3030E006E000EB2
:10048000016E22C404F0000E056E73DE4B0E0024D4
:10049000E96E000E0120EA6EEECF39F0EECF3AF0B1
:1004A000EECF3BF039C0F6FF3AC0F7FF3BC0F8FF94
:1004B0000900F5CF00F000C03DF0000E3E6E01D007
:1004C0003C6A0CD03C6A0AD02351010A99E02351BE
:0E04D000020AA7E02351030ACDE0F4D7120080
:1004DE0020C401F01F0E01160150010A01E08DD05B
:1004EE0004012451000A01E088D02151060A3FE19F
:1004FE0034D03450010A17E17A0E006E170E016ED9
:10050E00000E026E120E0026000E0122022200C004
:10051E0039F001C03AF002C03BF0090E3D6E000EFC
:10052E003E6EC00E3C6E23D03450010A12E1C50E51
:10053E00006E170E016E000E026E00C039F001C083
:10054E003AF002C03BF0210E3D6E000E3E6EC00E24
:10055E003C6E0DD0800E3C6E0AD004012351210A50
:10056E00C8E02351220AE0E02351230AF3E020C41D
:10057E0001F0600E0116050E006E005004E001320F
:10058E00019EFF0FFBD70150010A01E036D022D0A9
:10059E0034D033D0600E396E000E3A6E010E3D6EC1
:1005AE00000E3E6EC10E3C6E28D0800E3C6E23C4F3
:1005BE0060F023D0580E396E000E3A6E010E3D6E6D
:1005CE00000E3E6E810E3C6E18D0800E3C6E22C424
:1005DE0058F013D004012151010ADAE02151090A21
:1005EE00D8E02151020AD6E021510A0ADEE021515B
:0C05FE00030AE0E021510B0AE8E01200C3
:10060A00000E3E5C02E1080E3D5C10E23DC003F0C4
:10061A003EC004F04350000A03E1010E436E05D0C8
:10062A004350010A02E1020E436E04D0080E036E23
:10063A00000E046E2BC0E1FF2CC0E2FFE6922BC035
:10064A00E1FF2CC0E2FFE6902BC0E9FF2CC0EAFFD5
:10065A00EECF00F02BC0E1FF2CC0E2FF04500010E7
:10066A00E66E010E2B24E16E000E2C20E26E03C012
:10067A00E6FF03503D5C006E04503E58016E00C018
:10068A003DF001C03EF0280E546E040E556E3CB08B
:10069A002FD0035004102BE039C0F6FF3AC0F7FF01
:1006AA003BC0F8FF0900F5CF00F054C0E1FF55C088
:1006BA00E2FF00C0E6FF544A552A010E3924006EB3
:1006CA00000E3A20016E000E3B20026E00C039F087
:1006DA0001C03AF002C03BF0010E035C006E000E4E
:1006EA000458016E00C003F001C004F0D2D724D030
:1006FA000350041021E039C0E9FF3AC0EAFF54C0B0
:10070A00E1FF55C0E2FFEECFE6FF544A552A010E3B
:10071A003924006E000E3A20016E00C039F001C083
:10072A003AF0010E035C006E000E0458016E00C020
:0A073A0003F001C004F0DCD7120048
:1007440020C401F0600E0116050E006E005004E096
:100754000132019EFF0FFBD70150000A01E058D07F
:1007640034D03C8E080E356E53D040DE51D02FDE8F
:100774004FD0340E396E000E3A6E3C80010E3D6E41
:100784003C8E46D01CDD44D07FDD42D0370E006E57
:10079400000E016E24510026D8B0012A00C039F0A1
:1007A40001C03AF03C80010E3D6E3C8E31D03C8E4F
:1007B400370EE16E000EE26E2451E126D8B0E22A33
:1007C40022C4E6FF25D024D023D004012151050AF8
:1007D400C8E02151060AC9E02151090AC8E02151A3
:1007E400080AC7E02151000ACDE02151010ACCE0FA
:1007F4002151030AC9E021510A0AC8E021510B0A18
:10080400D6E02151070ADFE021510C0ADDE0DCD7F4
:020814001200D0
:0E081600160E6F6E9F0E6B6E3B0E696E12001B
:100824007A0E446E170E456E000E466E180E4B6E11
:10083400180E4C6E000E4D6EA30E4E6E170E4F6EBC
:10084400000E506EE60E516E170E526E000E536E71
:02085400120090
:10085600386A2BC0E1FF2CC0E2FFE66A040E2B18B3
:10086600E16E2CC0E2FF000EE21AE66A00016BAFF1
:0608760001D06B9F12008F
:08087C00595201E02EDE1200CA
:10088400010E00016725E96E000E6821EA6EEECFC5
:1008940000F000C002F0000E6D5D02E102506C5DDC
:1008A40003E26CC002F00AD002506C5D006E000ED0
:1008B4006D59016E00C06CF001C06DF0036A025006
:1008C400035C1CE2280EE96E040EEA6E0350E9266E
:1008D400D8B0EA2AEECF00F069C0E1FF6AC0E2FFB7
:1008E40000C0E6FF010E6925006E000E6A21016E4C
:1008F40000C069F001C06AF0032AE1D7000E006E5F
:100904006D51005C02E16C51000828E2010E65257E
:10091400E16E000E6621E26E080EE66E020E65259B
:10092400E16E000E6621E26E280EE66E040EE66E9F
:1009340067C0E9FF68C0EAFFEECF00F000BC07D053
:1009440065C0E1FF66C0E2FFC80EE66E06D065C072
:10095400E1FF66C0E2FF880EE66E19D0010E652540
:10096400E16E000E6621E26E080EE66E020E65254B
:10097400E16E000E6621E26E200EE66E040EE66E57
:1009840065C0E1FF66C0E2FF840EE66E6B9F120055
:100994006D983CBE4AD000016BAF28D0020E386E71
:1009A400010E2B24E16E000E2C20E26EE66A2BC0B1
:1009B400E1FF2CC0E2FFC80EE66E010E6525E16E74
:1009C400000E6621E26E080EE66E020E6525E16EEB
:1009D400000E6621E26E280EE66E040EE66E65C019
:1009E400E1FF66C0E2FFC80EE66E1ED0010E65256B
:1009F400E16E000E6621E26E080EE66E020E6525BB
:100A0400E16E000E6621E26E200EE66E040EE66EC6
:100A140065C0E1FF66C0E2FF8C0EE66E2BC0E1FF0D
:100A24002CC0E2FF840EE66E80D000016BBF7DD047
:100A3400040120AF52D03E50275D02E13D50265DB7
:100A440004E226C43DF027C43EF0DDDD010E386E1D
:100A5400010E00016525E16E000E6621E26E080EAE
:100A6400E66E020E6525E16E000E6621E26E200E32
:100A7400E66E040EE66E65C0E1FF66C0E2FF800E1E
:100A8400E66E5F6A010E6725E16E000E6821E26E74
:100A9400080EE66E020E6725E16E000E6821E26E16
:100AA400200EE66E040EE66E67C0E1FF68C0E2FF4A
:100AB400840EE66E010E5F6E020E2B24E16E000EB4
:100AC4002C20E26E280EE66E040EE66E2BC0E1FFCB
:100AD4002CC0E2FFC80EE66E28D00001020E386E6C
:100AE400010E2B24E16E000E2C20E26EE66A2BC070
:100AF400E1FF2CC0E2FFC80EE66E010E6525E16E33
:100B0400000E6621E26E080EE66E020E6525E16EA9
:100B1400000E6621E26E280EE66E040EE66E65C0D7
:0C0B2400E1FF66C0E2FFC80EE66E1200A2
:100B3000040E2B18006E00C02BF03550080A0AE195
:100B400022C46EFF6E50000803E2100E356E02D014
:100B5000040E356E3850010A3AE1020E2B24E16E84
:100B6000000E2C20E26E280EE66E040EE66E4DDDC1
:100B70004350020A07E12BC0E1FF2CC0E2FF840EC4
:100B8000E66E24D0040E2B18006E00C02BF02BC094
:100B9000E9FF2CC0EAFFEECF00F000BC0CD0040E41
:100BA0002B18006E00C02BF02BC0E1FF2CC0E2FF21
:100BB000C80EE66E0BD0040E2B18006E00C02BF092
:100BC0002BC0E1FF2CC0E2FF880EE66E01D043DEB1
:020BD000120011
:100BD2002BC0E9FF2CC0EAFFEECF00F000AE05D03B
:100BE2002BC0E1FF2CC0E2FFE66A436A386A3D6A25
:0C0BF2003E6A3C6AA6DD41DECCDE12004B
:100BFE0012DE326A336A566A576A6A6A686A04DEB5
:100C0E006D8C6E6A716A6D9C5A6A5B6A000E5B5CD3
:100C1E0002E1080E5A5C17E25AC000F05BC001F008
:100C2E00003600900136003600900136000E00248A
:100C3E00E16E040E0120E26EE66AE66AE66AE66A94
:100C4E005A4A5B2AE3D7160E706E68A603D0F70ECB
:100C5E006816FBD73C6A00016B6B6C6B6D6B6D9805
:0E0C6E00080E2B6E040E2C6E346A356A1200CE
:100C7C0070A019D067C0E9FF68C0EAFFEECF01F0A1
:100C8C000150800A0FE12BC0E9FF2CC0EAFFEECF28
:100C9C0001F00150840A06E167C0E1FF68C0E2FF81
:0C0CAC008C0EE66E7090DF0E68161200D1
:0A0CB8006984EF0E68166D821200C9
:100CC2006D92699468A403D0FB0E6816FBD71200DC
:100CD2003850020A02E1D5DD1ED0BCDD5F50000AA9
:100CE20019E1010E6525E16E000E6621E26E080E25
:100CF200E66E020E6525E16E000E6621E26E200EA2
:100D0200E66E040EE66E65C0E1FF66C0E2FF8C0E81
:080D1200E66E01D05F6A1200D9
:040D1A00A19A120088
:100D1E003550000A09E16D6A696A76DD6DB602D05A
:100D2E006D86FCD7010E356E3550010A08E16DBA9D
:100D3E0006D0686A696A69806988020E356E68A491
:100D4E0005D069A403D0FB0E6816B4DF6DA202D0E5
:100D5E00DDDFD5D068A018D069A016D049DF040E0B
:100D6E00356E200E0401026F040E036F080E016F24
:100D7E00000E0015006E00C000F48C0E0011006E07
:100D8E0000C000F4FE0E681668A805D069A803D04E
:100D9E008CDFEF0E681668AC04D069AC02D0BF0EC3
:100DAE00681668AA03D069AA01D061DF68A202D0D2
:100DBE0069B26A6A040E355C02E2A8DFA0D069A6A9
:100DCE009DD000017D6B040E7D5DD8B097D068A6D6
:100DDE0091D06CCF5CF0F70E6816780E5C14016E35
:100DEE000150000AD8A485D0FD0E5C14016E026A73
:100DFE00FF0E0216000E021802E1000E01186BE142
:100E0E007E0E5C14016E01C003F00332039E03C01C
:100E1E0000F0000E016E0036009001360036009094
:100E2E000136000E0024026E040E0120036E02C075
:100E3E0067F003C068F002C065F003C066F0040EF0
:100E4E006519006E00C065F002C0E9FF03C0EAFF3D
:100E5E00EECF00F000C001F03C0E01160132019EF3
:100E6E000132019E01500D0A34E1020E6725E96E32
:100E7E00000E6821EA6EEECF01F0EECF02F00250C6
:100E8E00040A02E1280E011822E1020E6725E16E26
:100E9E00000E6821E26E200EE66E040EE66E7C6B8E
:100EAE00080E7C5D14E2200EE16E040EE26E7C51A3
:100EBE00E126D8B0E22A280EE96E040EEA6E7C51C5
:100ECE00E926D8B0EA2AEECFE6FF7C2BE9D77ADE08
:100EDE0001D0F8DE0DD0FD0E5C14016E026AFF0E1D
:100EEE000216000E021802E1040E011801E119DECD
:100EFE0000D001D003D000017D2B65D707DF120093
:0A0F0E00D08EA28AA08AF28E120093
:100F1800060E006E180E016E000E026E0E0E0024F4
:100F2800F66E000E0120F76E000E0220F86E090022
:100F3800F5CF03F003C004F00F0E0024F66E000E88
:100F48000120F76E000E0220F86E0900F5CF01F0BF
:100F58000150035C12E2060E006E180E016E000EC0
:100F6800026E0F0E0024F66E000E0120F76E000EC2
:100F78000220F86E0900F5CF04F0060E006E180E78
:100F8800016E000E026E100E0024F66E000E012097
:100F9800F76E000E0220F86E0900F5CF01F001503F
:100FA800045C12E2060E006E180E016E000E026E50
:100FB800100E0024F66E000E0120F76E000E0220BF
:0E0FC800F86E0900F5CF04F004C000F012002E
:100FD60000017D51000A12E07CC000F0000E016E97
:100FE6000036009001362B0E0024E96E000E01201B
:100FF600EA6EEECF04F0EECF05F011D07CC000F023
:10100600000E016E003600900136470E0024E96E90
:10101600000E0120EA6EEECF04F0EECF05F0020ED0
:101026000424E16E000E0520E26E7EC0E6FF7FC05E
:10103600E6FF010E0424E16E000E0520E26E80C07C
:10104600E6FF04C0E9FF05C0EAFFEECF00F004C0EA
:10105600E1FF05C0E2FF400E0014E66E04C0E9FFA2
:1010660005C0EAFFEECF00F004C0E1FF05C0E2FFD5
:10107600880E0010E66E7D51000A1BE07CC000F071
:10108600000E016E0036009001362B0E0024026E13
:10109600000E0120036E02C0E9FF03C0EAFF040E42
:1010A600EE18006E02C0E1FF03C0E2FF00C0E6FFDB
:1010B6001AD07CC000F0000E016E0036009001369A
:1010C600470E0024026E000E0120036E02C0E9FFE7
:1010D60003C0EAFF040EEE18006E02C0E1FF03C073
:1010E600E2FF00C0E6FF04C000F005C001F01200F8
:1010F60000017F6B806B816B020E7C25F66E000E05
:101106007D21F76E000E7E21F86E0900F5CF05F001
:10111600030E7C25F66E000E7D21F76E000E7E21F5
:10112600F86E0900F5CF00F000C003F0000E046E63
:1011360003C001F0006A05500024066E000E01206F
:10114600076E7CC008F07DC009F07EC00AF0010E73
:101156000824F66E000E0920F76E000E0A20F86EBF
:101166000900F5CF01F00150020A1BE1060E082422
:10117600F66E000E0920F76E000E0A20F86E0900C2
:10118600F5CF01F001507F5D0CE2060E0824F66EE5
:10119600000E0920F76E000E0A20F86E0900F5CF42
:1011A6007FF0010E0824F66E000E0920F76E000E81
:1011B6000A20F86E0900F5CF01F00150040A1BE180
:1011C600080E0824F66E000E0920F76E000E0A209F
:1011D600F86E0900F5CF01F001507F5D0CE2080EB4
:1011E6000824F66E000E0920F76E000E0A20F86E2F
:1011F6000900F5CF7FF008C0F6FF09C0F7FF0AC067
:10120600F8FF0900F5CF00F000508025016E000EB2
:101216008121026E01C080F002C081F00750025C9D
:1012260002E10650015C01E30FD008C0F6FF09C0D9
:10123600F7FF0AC0F8FF0900F5CF00F000500826B6
:0E124600000E09220A2283D77FC000F012009A
:10125400000E00017D1902E1000E7C1902E1016A11
:101264000AD07CC0E9FF7DC0EAFFEECF00F0000E9B
:0C12740000BE010E016E01C000F012006F
:101280004BDE00C076F07A0E00017C6F170E7D6F8A
:10129000000E7E6F30DF00C077F07651005C03E215
:0C12A00076C000F002D077C000F0120011
:0E12AC00570E0D6E0D2EFED700000000120032
:1012BA003550000A0BE16D6A696A0BEC04F022DE14
:0E12CA006DB602D06D86FCD7010E356E120097
:1012D800200E355C03E36DB201D002D0006A47D01E
:1012E80056C07CF057C07DF0B1DF00523FE179C0B5
:1012F8007CF0010E7D6F76C07EF077C07FF078C0FD
:1013080080F065DE00C056F001C057F0616B626B7B
:10131800636B646B56C07CF057C07DF097DF00525A
:101328000FE0010E016E0150000A01E1F4DC00013A
:10133800615162116311641102E0006A18D0EAD7A2
:1013480056C07AF057C07BF0000E571802E1000E25
:1013580056180AE00001010E7A25E96E000E7B217D
:10136800EA6EEECF00F003D0006A01D0006A1200E6
:101378000900F5CFE6FF0006FBE10106F9E11200DE
:10138800FF0E3F6EFF0E406EFF0E416EFF0E426E67
:0C139800C26A070EC012C08EC280120094
:1013A4003550010A07E16DBA05D0686A6980698819
:1013B400020E356E68A405D069A403D0FB0E68162E
:1013C4007EDC6DA202D0A7DCD9D068A018D069A0B9
:1013D40016D013DC040E356E200E0401026F040EC9
:1013E400036F080E016F000E0015006E00C000F4BC
:1013F4008C0E0011006E00C000F4FE0E681668A882
:1014040005D069A803D056DCEF0E681668AC04D08A
:1014140069AC02D0BF0E681668AA03D069AA01D0CD
:101424002BDC68A202D069B26A6A040E355C02E25F
:1014340072DCA4D069A6A0D00001836B040E835D86
:10144400D8B09AD068A694D06CCF5CF0F70E68162A
:10145400780E5C14016E0150000AD8A488D0FD0EE9
:101464005C14016E026AFF0E0216000E021802E1FD
:10147400000E01186DE17E0E5C14016E01C003F0D4
:101484000332039E03C000F0000E016E003600908C
:101494000136003600900136000E0024026E040E60
:1014A4000120036E02C067F003C068F002C065F05B
:1014B40003C066F0040E6519006E00C065F002C03A
:1014C400E9FF03C0EAFFEECF00F000C001F03C0EDC
:1014D40001160132019E0132019E01500D0A35E1CF
:1014E400020E6725E96E000E6821EA6EEECF01F068
:1014F400EECF02F00250040A02E1280E011822E1A4
:10150400020E6725E16E000E6821E26E200EE66E83
:10151400040EE66E826B080E825D14E2200EE16E0C
:10152400040EE26E8251E126D8B0E22A280EE96E5A
:10153400040EEA6E8251E926D8B0EA2AEECFE6FF1D
:10154400822BE9D7E9EC05F002D069EC06F00ED065
:10155400FD0E5C14016E026AFF0E0216000E0218E4
:1015640002E1040E011802E198EC05F000D001D06C
:0E15740003D00001832B62D78DEC06F012002D
:1015820072C076F073C077F074C078F0010E00017B
:06159200796FA1DE1200DA
:10159800C26A070EC012C08E72C000F000360090FA
:1015A800003600900050C212C2807CDEC282C2A205
:1015B80001D0FDD7C4CF01F0006AC3500012000E5D
:0615C8000112C2901200A6
:1015CE0058DE00C036F0010E596E72C030F073C096
:1015DE0031F074C05DF075C05EF0FFEC05F0010EE9
:0C15EE00016E0150010A01E161DE1200F3
:1015FA00296A2A6AC4DE000E0001726F050E736F33
:10160A00400E746F050E756FDDDF0001726BBFDF70
:10161A0000C029F001C02AF0800E026E800E011867
:10162A00025C02E10050640804E22D0E0501406FDD
:10163A0003D00501200E406F800E006E800E2A181E
:10164A00005C02E12950C80803E22D0E416F02D066
:10165A00200E416F800E010A006E800E2A18005C6F
:10166A0002E129502C0803E22D0E426F02D0200E0F
:10167A00426F800E010A006E800E2A18005C02E199
:10168A002950900803E22D0E436F02D0200E436FBB
:10169A00800E010A006E800E2A18005C02E12950B1
:1016AA00F40803E22D0E446F02D0200E446F800E20
:1016BA00020A006E800E2A18005C02E129505808BE
:1016CA0003E22D0E456F02D0200E456F800E020AEE
:1016DA00006E800E2A18005C02E12950BC0803E261
:1016EA002D0E466F02D0200E466F800E030A006E42
:1016FA00800E2A18005C02E12950200803E22D0E10
:10170A00476F02D0200E476F800E030A006E800ECC
:10171A002A18005C02E12950840803E22D0E486F62
:10172A0002D0200E486F800E030A006E800E2A181F
:10173A00005C02E12950E80803E22D0E496F02D04D
:10174A00200E496F0D0E4A6F0A0E4B6F400E0001B4
:10175A00726F050E736F400E746F0EDF9C0E0C6E67
:10176A00D70E0D6E0D2EFED70C2EFCD74ED7FFD7F7
:10177A000902290001010080320904000002030065
:10178A00000009210101000122210007058103400F
:09179A00000107050103400001F4
:1017A30022034D0069006B0072006F0065006C003E
:1017B30065006B00740072006F006E0069006B00BF
:0217C3006100C3
:1017C5000600FF0901A10119012940150026FF00A6
:1017D50075089540810219012940750895409102C7
:0117E500C043
:1017E60020035500530042002000480049004400F1
:1017F60020004C00690062007200610072007900EE
:10180600120100020000000834120100010001026A
:021816000001CF
:0418180004030904B8
:020000040030CA
:0E000000240E1F1EFF8381FF0FC00FE00F4074
:00000001FF
